{
  "_format": "hh-sol-artifact-1",
  "contractName": "ProjectFactory",
  "sourceName": "contracts/ProjectFactory.sol",
  "abi": [
    {
      "inputs": [],
      "stateMutability": "nonpayable",
      "type": "constructor"
    },
    {
      "anonymous": false,
      "inputs": [
        {
          "indexed": true,
          "internalType": "address",
          "name": "projectAddress",
          "type": "address"
        },
        {
          "indexed": false,
          "internalType": "string",
          "name": "name",
          "type": "string"
        },
        {
          "indexed": false,
          "internalType": "string",
          "name": "symbol",
          "type": "string"
        },
        {
          "indexed": false,
          "internalType": "uint256",
          "name": "fundingGoal",
          "type": "uint256"
        },
        {
          "indexed": false,
          "internalType": "uint256",
          "name": "interestRate",
          "type": "uint256"
        }
      ],
      "name": "ProjectCreated",
      "type": "event"
    },
    {
      "inputs": [],
      "name": "admin",
      "outputs": [
        {
          "internalType": "address",
          "name": "",
          "type": "address"
        }
      ],
      "stateMutability": "view",
      "type": "function"
    },
    {
      "inputs": [
        {
          "internalType": "uint256",
          "name": "",
          "type": "uint256"
        }
      ],
      "name": "allProjects",
      "outputs": [
        {
          "internalType": "address",
          "name": "",
          "type": "address"
        }
      ],
      "stateMutability": "view",
      "type": "function"
    },
    {
      "inputs": [
        {
          "internalType": "string",
          "name": "name",
          "type": "string"
        },
        {
          "internalType": "string",
          "name": "symbol",
          "type": "string"
        },
        {
          "internalType": "string",
          "name": "description",
          "type": "string"
        },
        {
          "internalType": "uint256",
          "name": "fundingGoal",
          "type": "uint256"
        },
        {
          "internalType": "uint256",
          "name": "interestRate",
          "type": "uint256"
        },
        {
          "internalType": "uint256",
          "name": "duration",
          "type": "uint256"
        },
        {
          "internalType": "address",
          "name": "municipality",
          "type": "address"
        }
      ],
      "name": "createProject",
      "outputs": [
        {
          "internalType": "address",
          "name": "",
          "type": "address"
        }
      ],
      "stateMutability": "nonpayable",
      "type": "function"
    },
    {
      "inputs": [],
      "name": "getAllProjects",
      "outputs": [
        {
          "internalType": "address[]",
          "name": "",
          "type": "address[]"
        }
      ],
      "stateMutability": "view",
      "type": "function"
    },
    {
      "inputs": [],
      "name": "getProjectCount",
      "outputs": [
        {
          "internalType": "uint256",
          "name": "",
          "type": "uint256"
        }
      ],
      "stateMutability": "view",
      "type": "function"
    },
    {
      "inputs": [
        {
          "internalType": "address",
          "name": "",
          "type": "address"
        }
      ],
      "name": "isValidProject",
      "outputs": [
        {
          "internalType": "bool",
          "name": "",
          "type": "bool"
        }
      ],
      "stateMutability": "view",
      "type": "function"
    },
    {
      "inputs": [],
      "name": "projectCount",
      "outputs": [
        {
          "internalType": "uint256",
          "name": "",
          "type": "uint256"
        }
      ],
      "stateMutability": "view",
      "type": "function"
    }
  ],
  "bytecode": "0x6080604052348015600f57600080fd5b5033600260006101000a81548173ffffffffffffffffffffffffffffffffffffffff021916908373ffffffffffffffffffffffffffffffffffffffff16021790555061417c806100606000396000f3fe608060405234801561001057600080fd5b506004361061007d5760003560e01c806353b3194c1161005b57806353b3194c146100ee5780635d0c30111461011e57806380d038291461014e578063f851a4401461016c5761007d565b806336fbad26146100825780633bcff3b0146100a057806347752f9d146100be575b600080fd5b61008a61018a565b60405161009791906104e4565b60405180910390f35b6100a8610190565b6040516100b591906104e4565b60405180910390f35b6100d860048036038101906100d391906106e3565b61019a565b6040516100e591906107e8565b60405180910390f35b61010860048036038101906101039190610803565b6103ab565b60405161011591906107e8565b60405180910390f35b61013860048036038101906101339190610830565b6103ea565b6040516101459190610878565b60405180910390f35b61015661040a565b6040516101639190610951565b60405180910390f35b610174610498565b60405161018191906107e8565b60405180910390f35b60035481565b6000600354905090565b6000600260009054906101000a900473ffffffffffffffffffffffffffffffffffffffff1673ffffffffffffffffffffffffffffffffffffffff163373ffffffffffffffffffffffffffffffffffffffff161461022c576040517f08c379a0000000000000000000000000000000000000000000000000000000008152600401610223906109d0565b60405180910390fd5b600088888888888888604051610241906104be565b6102519796959493929190610a5e565b604051809103906000f08015801561026d573d6000803e3d6000fd5b50905060008190506000819080600181540180825580915050600190039060005260206000200160009091909190916101000a81548173ffffffffffffffffffffffffffffffffffffffff021916908373ffffffffffffffffffffffffffffffffffffffff16021790555060018060008373ffffffffffffffffffffffffffffffffffffffff1673ffffffffffffffffffffffffffffffffffffffff16815260200190815260200160002060006101000a81548160ff0219169083151502179055506003600081548092919061034290610b11565b91905055508073ffffffffffffffffffffffffffffffffffffffff167fc7dbaff6e36fada0be9b5dcd1ac85c9724f27afcef84c6ba9a0ab1dc4d7ccc2b8b8b8a8a6040516103939493929190610b59565b60405180910390a28092505050979650505050505050565b600081815481106103bb57600080fd5b906000526020600020016000915054906101000a900473ffffffffffffffffffffffffffffffffffffffff1681565b60016020528060005260406000206000915054906101000a900460ff1681565b6060600080548060200260200160405190810160405280929190818152602001828054801561048e57602002820191906000526020600020905b8160009054906101000a900473ffffffffffffffffffffffffffffffffffffffff1673ffffffffffffffffffffffffffffffffffffffff1681526020019060010190808311610444575b5050505050905090565b600260009054906101000a900473ffffffffffffffffffffffffffffffffffffffff1681565b61359a80610bad83390190565b6000819050919050565b6104de816104cb565b82525050565b60006020820190506104f960008301846104d5565b92915050565b6000604051905090565b600080fd5b600080fd5b600080fd5b600080fd5b6000601f19601f8301169050919050565b7f4e487b7100000000000000000000000000000000000000000000000000000000600052604160045260246000fd5b6105668261051d565b810181811067ffffffffffffffff821117156105855761058461052e565b5b80604052505050565b60006105986104ff565b90506105a4828261055d565b919050565b600067ffffffffffffffff8211156105c4576105c361052e565b5b6105cd8261051d565b9050602081019050919050565b82818337600083830152505050565b60006105fc6105f7846105a9565b61058e565b90508281526020810184848401111561061857610617610518565b5b6106238482856105da565b509392505050565b600082601f8301126106405761063f610513565b5b81356106508482602086016105e9565b91505092915050565b610662816104cb565b811461066d57600080fd5b50565b60008135905061067f81610659565b92915050565b600073ffffffffffffffffffffffffffffffffffffffff82169050919050565b60006106b082610685565b9050919050565b6106c0816106a5565b81146106cb57600080fd5b50565b6000813590506106dd816106b7565b92915050565b600080600080600080600060e0888a03121561070257610701610509565b5b600088013567ffffffffffffffff8111156107205761071f61050e565b5b61072c8a828b0161062b565b975050602088013567ffffffffffffffff81111561074d5761074c61050e565b5b6107598a828b0161062b565b965050604088013567ffffffffffffffff81111561077a5761077961050e565b5b6107868a828b0161062b565b95505060606107978a828b01610670565b94505060806107a88a828b01610670565b93505060a06107b98a828b01610670565b92505060c06107ca8a828b016106ce565b91505092959891949750929550565b6107e2816106a5565b82525050565b60006020820190506107fd60008301846107d9565b92915050565b60006020828403121561081957610818610509565b5b600061082784828501610670565b91505092915050565b60006020828403121561084657610845610509565b5b6000610854848285016106ce565b91505092915050565b60008115159050919050565b6108728161085d565b82525050565b600060208201905061088d6000830184610869565b92915050565b600081519050919050565b600082825260208201905092915050565b6000819050602082019050919050565b6108c8816106a5565b82525050565b60006108da83836108bf565b60208301905092915050565b6000602082019050919050565b60006108fe82610893565b610908818561089e565b9350610913836108af565b8060005b8381101561094457815161092b88826108ce565b9750610936836108e6565b925050600181019050610917565b5085935050505092915050565b6000602082019050818103600083015261096b81846108f3565b905092915050565b600082825260208201905092915050565b7f4f6e6c792061646d696e00000000000000000000000000000000000000000000600082015250565b60006109ba600a83610973565b91506109c582610984565b602082019050919050565b600060208201905081810360008301526109e9816109ad565b9050919050565b600081519050919050565b60005b83811015610a195780820151818401526020810190506109fe565b60008484015250505050565b6000610a30826109f0565b610a3a8185610973565b9350610a4a8185602086016109fb565b610a538161051d565b840191505092915050565b600060e0820190508181036000830152610a78818a610a25565b90508181036020830152610a8c8189610a25565b90508181036040830152610aa08188610a25565b9050610aaf60608301876104d5565b610abc60808301866104d5565b610ac960a08301856104d5565b610ad660c08301846107d9565b98975050505050505050565b7f4e487b7100000000000000000000000000000000000000000000000000000000600052601160045260246000fd5b6000610b1c826104cb565b91507fffffffffffffffffffffffffffffffffffffffffffffffffffffffffffffffff8203610b4e57610b4d610ae2565b5b600182019050919050565b60006080820190508181036000830152610b738187610a25565b90508181036020830152610b878186610a25565b9050610b9660408301856104d5565b610ba360608301846104d5565b9594505050505056fe608060405234801561001057600080fd5b5060405161359a38038061359a83398181016040528101906100329190610335565b868681600390816100439190610642565b5080600490816100539190610642565b5050506001600581905550846006908161006d9190610642565b50836007819055508260098190555081600a8190555080600b60006101000a81548173ffffffffffffffffffffffffffffffffffffffff021916908373ffffffffffffffffffffffffffffffffffffffff16021790555033600c60006101000a81548173ffffffffffffffffffffffffffffffffffffffff021916908373ffffffffffffffffffffffffffffffffffffffff1602179055506001601260006101000a81548160ff02191690831515021790555050505050505050610714565b6000604051905090565b600080fd5b600080fd5b600080fd5b600080fd5b6000601f19601f8301169050919050565b7f4e487b7100000000000000000000000000000000000000000000000000000000600052604160045260246000fd5b6101938261014a565b810181811067ffffffffffffffff821117156101b2576101b161015b565b5b80604052505050565b60006101c561012c565b90506101d1828261018a565b919050565b600067ffffffffffffffff8211156101f1576101f061015b565b5b6101fa8261014a565b9050602081019050919050565b60005b8381101561022557808201518184015260208101905061020a565b60008484015250505050565b600061024461023f846101d6565b6101bb565b9050828152602081018484840111156102605761025f610145565b5b61026b848285610207565b509392505050565b600082601f83011261028857610287610140565b5b8151610298848260208601610231565b91505092915050565b6000819050919050565b6102b4816102a1565b81146102bf57600080fd5b50565b6000815190506102d1816102ab565b92915050565b600073ffffffffffffffffffffffffffffffffffffffff82169050919050565b6000610302826102d7565b9050919050565b610312816102f7565b811461031d57600080fd5b50565b60008151905061032f81610309565b92915050565b600080600080600080600060e0888a03121561035457610353610136565b5b600088015167ffffffffffffffff8111156103725761037161013b565b5b61037e8a828b01610273565b975050602088015167ffffffffffffffff81111561039f5761039e61013b565b5b6103ab8a828b01610273565b965050604088015167ffffffffffffffff8111156103cc576103cb61013b565b5b6103d88a828b01610273565b95505060606103e98a828b016102c2565b94505060806103fa8a828b016102c2565b93505060a061040b8a828b016102c2565b92505060c061041c8a828b01610320565b91505092959891949750929550565b600081519050919050565b7f4e487b7100000000000000000000000000000000000000000000000000000000600052602260045260246000fd5b6000600282049050600182168061047d57607f821691505b6020821081036104905761048f610436565b5b50919050565b60008190508160005260206000209050919050565b60006020601f8301049050919050565b600082821b905092915050565b6000600883026104f87fffffffffffffffffffffffffffffffffffffffffffffffffffffffffffffffff826104bb565b61050286836104bb565b95508019841693508086168417925050509392505050565b6000819050919050565b600061053f61053a610535846102a1565b61051a565b6102a1565b9050919050565b6000819050919050565b61055983610524565b61056d61056582610546565b8484546104c8565b825550505050565b600090565b610582610575565b61058d818484610550565b505050565b5b818110156105b1576105a660008261057a565b600181019050610593565b5050565b601f8211156105f6576105c781610496565b6105d0846104ab565b810160208510156105df578190505b6105f36105eb856104ab565b830182610592565b50505b505050565b600082821c905092915050565b6000610619600019846008026105fb565b1980831691505092915050565b60006106328383610608565b9150826002028217905092915050565b61064b8261042b565b67ffffffffffffffff8111156106645761066361015b565b5b61066e8254610465565b6106798282856105b5565b600060209050601f8311600181146106ac576000841561069a578287015190505b6106a48582610626565b86555061070c565b601f1984166106ba86610496565b60005b828110156106e2578489015182556001820191506020850194506020810190506106bd565b868310156106ff57848901516106fb601f891682610608565b8355505b6001600288020188555050505b505050505050565b612e77806107236000396000f3fe60806040526004361061021a5760003560e01c80637c3a00fd11610123578063c5c4744c116100ab578063e8b5e51f1161006f578063e8b5e51f146107b4578063ed0ea003146107be578063f851a440146107fb578063fc0e973914610826578063fea08a8e1461083d5761021a565b8063c5c4744c146106cd578063c6221878146106f8578063d7e64c0014610723578063dd62ed3e1461074e578063e43252d71461078b5761021a565b80638ab1d681116100f25780638ab1d681146105e657806394febbf31461060f57806395d89b411461063a578063a61e7e4c14610665578063a9059cbb146106905761021a565b80637c3a00fd146105395780637c654303146105645780637f3264421461058f57806387f0f785146105cf5761021a565b80632d6c1661116101a65780634ef8ff33116101755780634ef8ff331461043e57806370a0823114610469578063755f047b146104a6578063776345b0146104d15780637a3a0e841461050e5761021a565b80632d6c16611461037d578063313ce567146103ad57806339ee0661146103d85780633af32abf146104015761021a565b806318160ddd116101ed57806318160ddd146102c957806322f3e2d4146102f457806323b872dd1461031f57806324600fc31461035c5780632d07953a146103735761021a565b806306fdde031461021f578063095ea7b31461024a5780630d8f883c1461028757806312db1f05146102b2575b600080fd5b34801561022b57600080fd5b50610234610868565b604051610241919061229f565b60405180910390f35b34801561025657600080fd5b50610271600480360381019061026c9190612369565b6108fa565b60405161027e91906123c4565b60405180910390f35b34801561029357600080fd5b5061029c61091d565b6040516102a991906123ee565b60405180910390f35b3480156102be57600080fd5b506102c7610923565b005b3480156102d557600080fd5b506102de6109d0565b6040516102eb91906123ee565b60405180910390f35b34801561030057600080fd5b506103096109da565b60405161031691906123c4565b60405180910390f35b34801561032b57600080fd5b5061034660048036038101906103419190612409565b6109ed565b60405161035391906123c4565b60405180910390f35b34801561036857600080fd5b50610371610a1c565b005b61037b610bc8565b005b34801561038957600080fd5b50610392610cef565b6040516103a49695949392919061245c565b60405180910390f35b3480156103b957600080fd5b506103c2610d38565b6040516103cf91906124d9565b60405180910390f35b3480156103e457600080fd5b506103ff60048036038101906103fa919061263c565b610d41565b005b34801561040d57600080fd5b5061042860048036038101906104239190612685565b610ec9565b60405161043591906123c4565b60405180910390f35b34801561044a57600080fd5b50610453610ee9565b60405161046091906123ee565b60405180910390f35b34801561047557600080fd5b50610490600480360381019061048b9190612685565b610ef3565b60405161049d91906123ee565b60405180910390f35b3480156104b257600080fd5b506104bb610f3b565b6040516104c8919061229f565b60405180910390f35b3480156104dd57600080fd5b506104f860048036038101906104f39190612685565b610fc9565b60405161050591906123ee565b60405180910390f35b34801561051a57600080fd5b50610523610ffa565b60405161053091906123ee565b60405180910390f35b34801561054557600080fd5b5061054e611000565b60405161055b91906123ee565b60405180910390f35b34801561057057600080fd5b50610579611006565b60405161058691906123c4565b60405180910390f35b34801561059b57600080fd5b506105b660048036038101906105b19190612685565b611019565b6040516105c694939291906126b2565b60405180910390f35b3480156105db57600080fd5b506105e46110df565b005b3480156105f257600080fd5b5061060d60048036038101906106089190612685565b6111dc565b005b34801561061b57600080fd5b50610624611316565b60405161063191906123ee565b60405180910390f35b34801561064657600080fd5b5061064f61131c565b60405161065c919061229f565b60405180910390f35b34801561067157600080fd5b5061067a6113ae565b6040516106879190612706565b60405180910390f35b34801561069c57600080fd5b506106b760048036038101906106b29190612369565b6113d4565b6040516106c491906123c4565b60405180910390f35b3480156106d957600080fd5b506106e26113f7565b6040516106ef91906123ee565b60405180910390f35b34801561070457600080fd5b5061070d6113fd565b60405161071a91906123c4565b60405180910390f35b34801561072f57600080fd5b50610738611410565b60405161074591906123ee565b60405180910390f35b34801561075a57600080fd5b5061077560048036038101906107709190612721565b611416565b60405161078291906123ee565b60405180910390f35b34801561079757600080fd5b506107b260048036038101906107ad9190612685565b61149d565b005b6107bc6115d7565b005b3480156107ca57600080fd5b506107e560048036038101906107e09190612685565b61195a565b6040516107f291906123ee565b60405180910390f35b34801561080757600080fd5b50610810611972565b60405161081d9190612706565b60405180910390f35b34801561083257600080fd5b5061083b611998565b005b34801561084957600080fd5b50610852611a8c565b60405161085f91906123ee565b60405180910390f35b60606003805461087790612790565b80601f01602080910402602001604051908101604052809291908181526020018280546108a390612790565b80156108f05780601f106108c5576101008083540402835291602001916108f0565b820191906000526020600020905b8154815290600101906020018083116108d357829003601f168201915b5050505050905090565b600080610905611a92565b9050610912818585611a9a565b600191505092915050565b600a5481565b600c60009054906101000a900473ffffffffffffffffffffffffffffffffffffffff1673ffffffffffffffffffffffffffffffffffffffff163373ffffffffffffffffffffffffffffffffffffffff16146109b3576040517f08c379a00000000000000000000000000000000000000000000000000000000081526004016109aa9061280d565b60405180910390fd5b6000601260006101000a81548160ff021916908315150217905550565b6000600254905090565b601260009054906101000a900460ff1681565b6000806109f8611a92565b9050610a05858285611aac565b610a10858585611b41565b60019150509392505050565b600b60009054906101000a900473ffffffffffffffffffffffffffffffffffffffff1673ffffffffffffffffffffffffffffffffffffffff163373ffffffffffffffffffffffffffffffffffffffff1614610aac576040517f08c379a0000000000000000000000000000000000000000000000000000000008152600401610aa390612879565b60405180910390fd5b610ab4611c35565b601260019054906101000a900460ff16610b03576040517f08c379a0000000000000000000000000000000000000000000000000000000008152600401610afa906128e5565b60405180910390fd5b601260029054906101000a900460ff1615610b53576040517f08c379a0000000000000000000000000000000000000000000000000000000008152600401610b4a90612951565b60405180910390fd5b600b60009054906101000a900473ffffffffffffffffffffffffffffffffffffffff1673ffffffffffffffffffffffffffffffffffffffff166108fc6008549081150290604051600060405180830381858888f19350505050158015610bbd573d6000803e3d6000fd5b50610bc6611c7b565b565b600b60009054906101000a900473ffffffffffffffffffffffffffffffffffffffff1673ffffffffffffffffffffffffffffffffffffffff163373ffffffffffffffffffffffffffffffffffffffff1614610c58576040517f08c379a0000000000000000000000000000000000000000000000000000000008152600401610c4f90612879565b60405180910390fd5b60003411610c9b576040517f08c379a0000000000000000000000000000000000000000000000000000000008152600401610c92906129bd565b60405180910390fd5b3460116000828254610cad9190612a0c565b925050819055507ff2838e4b541f90d41a1076a560d75e948f7d1008e72118a655568626a30b451f3442604051610ce5929190612a40565b60405180910390a1565b600080600080600080600854600754600f54600954601260019054906101000a900460ff16601260009054906101000a900460ff16955095509550955095509550909192939495565b60006012905090565b600c60009054906101000a900473ffffffffffffffffffffffffffffffffffffffff1673ffffffffffffffffffffffffffffffffffffffff163373ffffffffffffffffffffffffffffffffffffffff1614610dd1576040517f08c379a0000000000000000000000000000000000000000000000000000000008152600401610dc89061280d565b60405180910390fd5b60005b8151811015610ec557600160106000848481518110610df657610df5612a69565b5b602002602001015173ffffffffffffffffffffffffffffffffffffffff1673ffffffffffffffffffffffffffffffffffffffff16815260200190815260200160002060006101000a81548160ff021916908315150217905550818181518110610e6257610e61612a69565b5b602002602001015173ffffffffffffffffffffffffffffffffffffffff167ff93f9a76c1bf3444d22400a00cb9fe990e6abe9dbb333fda48859cfee864543d6001604051610eb091906123c4565b60405180910390a28080600101915050610dd4565b5050565b60106020528060005260406000206000915054906101000a900460ff1681565b655af3107a400081565b60008060008373ffffffffffffffffffffffffffffffffffffffff1673ffffffffffffffffffffffffffffffffffffffff168152602001908152602001600020549050919050565b60068054610f4890612790565b80601f0160208091040260200160405190810160405280929190818152602001828054610f7490612790565b8015610fc15780601f10610f9657610100808354040283529160200191610fc1565b820191906000526020600020905b815481529060010190602001808311610fa457829003601f168201915b505050505081565b600080610fd583610ef3565b905061271060095482610fe89190612a98565b610ff29190612b09565b915050919050565b60075481565b60095481565b601260019054906101000a900460ff1681565b60008060008061102885610ef3565b9350600e60008673ffffffffffffffffffffffffffffffffffffffff1673ffffffffffffffffffffffffffffffffffffffff1681526020019081526020016000205492506127106009548561107d9190612a98565b6110879190612b09565b9150601060008673ffffffffffffffffffffffffffffffffffffffff1673ffffffffffffffffffffffffffffffffffffffff16815260200190815260200160002060009054906101000a900460ff1690509193509193565b600c60009054906101000a900473ffffffffffffffffffffffffffffffffffffffff1673ffffffffffffffffffffffffffffffffffffffff163373ffffffffffffffffffffffffffffffffffffffff161461116f576040517f08c379a00000000000000000000000000000000000000000000000000000000081526004016111669061280d565b60405180910390fd5b601260029054906101000a900460ff16156111bf576040517f08c379a00000000000000000000000000000000000000000000000000000000081526004016111b690612b86565b60405180910390fd5b6001601260006101000a81548160ff021916908315150217905550565b600c60009054906101000a900473ffffffffffffffffffffffffffffffffffffffff1673ffffffffffffffffffffffffffffffffffffffff163373ffffffffffffffffffffffffffffffffffffffff161461126c576040517f08c379a00000000000000000000000000000000000000000000000000000000081526004016112639061280d565b60405180910390fd5b6000601060008373ffffffffffffffffffffffffffffffffffffffff1673ffffffffffffffffffffffffffffffffffffffff16815260200190815260200160002060006101000a81548160ff0219169083151502179055508073ffffffffffffffffffffffffffffffffffffffff167ff93f9a76c1bf3444d22400a00cb9fe990e6abe9dbb333fda48859cfee864543d600060405161130b91906123c4565b60405180910390a250565b600d5481565b60606004805461132b90612790565b80601f016020809104026020016040519081016040528092919081815260200182805461135790612790565b80156113a45780601f10611379576101008083540402835291602001916113a4565b820191906000526020600020905b81548152906001019060200180831161138757829003601f168201915b5050505050905090565b600b60009054906101000a900473ffffffffffffffffffffffffffffffffffffffff1681565b6000806113df611a92565b90506113ec818585611b41565b600191505092915050565b60085481565b601260029054906101000a900460ff1681565b600f5481565b6000600160008473ffffffffffffffffffffffffffffffffffffffff1673ffffffffffffffffffffffffffffffffffffffff16815260200190815260200160002060008373ffffffffffffffffffffffffffffffffffffffff1673ffffffffffffffffffffffffffffffffffffffff16815260200190815260200160002054905092915050565b600c60009054906101000a900473ffffffffffffffffffffffffffffffffffffffff1673ffffffffffffffffffffffffffffffffffffffff163373ffffffffffffffffffffffffffffffffffffffff161461152d576040517f08c379a00000000000000000000000000000000000000000000000000000000081526004016115249061280d565b60405180910390fd5b6001601060008373ffffffffffffffffffffffffffffffffffffffff1673ffffffffffffffffffffffffffffffffffffffff16815260200190815260200160002060006101000a81548160ff0219169083151502179055508073ffffffffffffffffffffffffffffffffffffffff167ff93f9a76c1bf3444d22400a00cb9fe990e6abe9dbb333fda48859cfee864543d60016040516115cc91906123c4565b60405180910390a250565b6115df611c35565b601260009054906101000a900460ff1661162e576040517f08c379a000000000000000000000000000000000000000000000000000000000815260040161162590612bf2565b60405180910390fd5b601260019054906101000a900460ff161561167e576040517f08c379a000000000000000000000000000000000000000000000000000000000815260040161167590612c5e565b60405180910390fd5b655af3107a40003410156116c7576040517f08c379a00000000000000000000000000000000000000000000000000000000081526004016116be90612cca565b60405180910390fd5b600754346008546116d89190612a0c565b1115611719576040517f08c379a000000000000000000000000000000000000000000000000000000000815260040161171090612d36565b60405180910390fd5b6000600e60003373ffffffffffffffffffffffffffffffffffffffff1673ffffffffffffffffffffffffffffffffffffffff168152602001908152602001600020540361182057600f600081548092919061177390612d56565b91905055506001601060003373ffffffffffffffffffffffffffffffffffffffff1673ffffffffffffffffffffffffffffffffffffffff16815260200190815260200160002060006101000a81548160ff0219169083151502179055503373ffffffffffffffffffffffffffffffffffffffff167ff93f9a76c1bf3444d22400a00cb9fe990e6abe9dbb333fda48859cfee864543d600160405161181791906123c4565b60405180910390a25b34600e60003373ffffffffffffffffffffffffffffffffffffffff1673ffffffffffffffffffffffffffffffffffffffff168152602001908152602001600020600082825461186f9190612a0c565b9250508190555034600860008282546118889190612a0c565b925050819055506118993334611c85565b3373ffffffffffffffffffffffffffffffffffffffff167f9e9d071824fd57d062ca63fd8b786d8da48a6807eebbcb2d83f9e8d21398e28c34346040516118e1929190612a40565b60405180910390a260075460085410611950576001601260016101000a81548160ff02191690831515021790555042600d819055507f2301e0a2ad8f6e28a7fbb09e96f5c14e588fac346ed5ce607e1a018bc768864660085460405161194791906123ee565b60405180910390a15b611958611c7b565b565b600e6020528060005260406000206000915090505481565b600c60009054906101000a900473ffffffffffffffffffffffffffffffffffffffff1681565b600b60009054906101000a900473ffffffffffffffffffffffffffffffffffffffff1673ffffffffffffffffffffffffffffffffffffffff163373ffffffffffffffffffffffffffffffffffffffff1614611a28576040517f08c379a0000000000000000000000000000000000000000000000000000000008152600401611a1f90612879565b60405180910390fd5b6001601260026101000a81548160ff0219169083151502179055506000601260006101000a81548160ff0219169083151502179055507fe39866727217e43713c3728c5769515e8fb38e990b568b9831c1689dfdf67b6660405160405180910390a1565b60115481565b600033905090565b611aa78383836001611d07565b505050565b6000611ab88484611416565b90507fffffffffffffffffffffffffffffffffffffffffffffffffffffffffffffffff811015611b3b5781811015611b2b578281836040517ffb8f41b2000000000000000000000000000000000000000000000000000000008152600401611b2293929190612d9e565b60405180910390fd5b611b3a84848484036000611d07565b5b50505050565b600073ffffffffffffffffffffffffffffffffffffffff168373ffffffffffffffffffffffffffffffffffffffff1603611bb35760006040517f96c6fd1e000000000000000000000000000000000000000000000000000000008152600401611baa9190612706565b60405180910390fd5b600073ffffffffffffffffffffffffffffffffffffffff168273ffffffffffffffffffffffffffffffffffffffff1603611c255760006040517fec442f05000000000000000000000000000000000000000000000000000000008152600401611c1c9190612706565b60405180910390fd5b611c30838383611ede565b505050565b600260055403611c71576040517f3ee5aeb500000000000000000000000000000000000000000000000000000000815260040160405180910390fd5b6002600581905550565b6001600581905550565b600073ffffffffffffffffffffffffffffffffffffffff168273ffffffffffffffffffffffffffffffffffffffff1603611cf75760006040517fec442f05000000000000000000000000000000000000000000000000000000008152600401611cee9190612706565b60405180910390fd5b611d0360008383611ede565b5050565b600073ffffffffffffffffffffffffffffffffffffffff168473ffffffffffffffffffffffffffffffffffffffff1603611d795760006040517fe602df05000000000000000000000000000000000000000000000000000000008152600401611d709190612706565b60405180910390fd5b600073ffffffffffffffffffffffffffffffffffffffff168373ffffffffffffffffffffffffffffffffffffffff1603611deb5760006040517f94280d62000000000000000000000000000000000000000000000000000000008152600401611de29190612706565b60405180910390fd5b81600160008673ffffffffffffffffffffffffffffffffffffffff1673ffffffffffffffffffffffffffffffffffffffff16815260200190815260200160002060008573ffffffffffffffffffffffffffffffffffffffff1673ffffffffffffffffffffffffffffffffffffffff168152602001908152602001600020819055508015611ed8578273ffffffffffffffffffffffffffffffffffffffff168473ffffffffffffffffffffffffffffffffffffffff167f8c5be1e5ebec7d5bd14f71427d1e84f3dd0314c0f7b2291e5b200ac8c7c3b92584604051611ecf91906123ee565b60405180910390a35b50505050565b600073ffffffffffffffffffffffffffffffffffffffff168373ffffffffffffffffffffffffffffffffffffffff1614158015611f485750600073ffffffffffffffffffffffffffffffffffffffff168273ffffffffffffffffffffffffffffffffffffffff1614155b15611fda57601060008373ffffffffffffffffffffffffffffffffffffffff1673ffffffffffffffffffffffffffffffffffffffff16815260200190815260200160002060009054906101000a900460ff16611fd9576040517f08c379a0000000000000000000000000000000000000000000000000000000008152600401611fd090612e21565b60405180910390fd5b5b611fe5838383611fea565b505050565b600073ffffffffffffffffffffffffffffffffffffffff168373ffffffffffffffffffffffffffffffffffffffff160361203c5780600260008282546120309190612a0c565b9250508190555061210f565b60008060008573ffffffffffffffffffffffffffffffffffffffff1673ffffffffffffffffffffffffffffffffffffffff168152602001908152602001600020549050818110156120c8578381836040517fe450d38c0000000000000000000000000000000000000000000000000000000081526004016120bf93929190612d9e565b60405180910390fd5b8181036000808673ffffffffffffffffffffffffffffffffffffffff1673ffffffffffffffffffffffffffffffffffffffff16815260200190815260200160002081905550505b600073ffffffffffffffffffffffffffffffffffffffff168273ffffffffffffffffffffffffffffffffffffffff160361215857806002600082825403925050819055506121a5565b806000808473ffffffffffffffffffffffffffffffffffffffff1673ffffffffffffffffffffffffffffffffffffffff168152602001908152602001600020600082825401925050819055505b8173ffffffffffffffffffffffffffffffffffffffff168373ffffffffffffffffffffffffffffffffffffffff167fddf252ad1be2c89b69c2b068fc378daa952ba7f163c4a11628f55a4df523b3ef8360405161220291906123ee565b60405180910390a3505050565b600081519050919050565b600082825260208201905092915050565b60005b8381101561224957808201518184015260208101905061222e565b60008484015250505050565b6000601f19601f8301169050919050565b60006122718261220f565b61227b818561221a565b935061228b81856020860161222b565b61229481612255565b840191505092915050565b600060208201905081810360008301526122b98184612266565b905092915050565b6000604051905090565b600080fd5b600080fd5b600073ffffffffffffffffffffffffffffffffffffffff82169050919050565b6000612300826122d5565b9050919050565b612310816122f5565b811461231b57600080fd5b50565b60008135905061232d81612307565b92915050565b6000819050919050565b61234681612333565b811461235157600080fd5b50565b6000813590506123638161233d565b92915050565b600080604083850312156123805761237f6122cb565b5b600061238e8582860161231e565b925050602061239f85828601612354565b9150509250929050565b60008115159050919050565b6123be816123a9565b82525050565b60006020820190506123d960008301846123b5565b92915050565b6123e881612333565b82525050565b600060208201905061240360008301846123df565b92915050565b600080600060608486031215612422576124216122cb565b5b60006124308682870161231e565b93505060206124418682870161231e565b925050604061245286828701612354565b9150509250925092565b600060c08201905061247160008301896123df565b61247e60208301886123df565b61248b60408301876123df565b61249860608301866123df565b6124a560808301856123b5565b6124b260a08301846123b5565b979650505050505050565b600060ff82169050919050565b6124d3816124bd565b82525050565b60006020820190506124ee60008301846124ca565b92915050565b600080fd5b7f4e487b7100000000000000000000000000000000000000000000000000000000600052604160045260246000fd5b61253182612255565b810181811067ffffffffffffffff821117156125505761254f6124f9565b5b80604052505050565b60006125636122c1565b905061256f8282612528565b919050565b600067ffffffffffffffff82111561258f5761258e6124f9565b5b602082029050602081019050919050565b600080fd5b60006125b86125b384612574565b612559565b905080838252602082019050602084028301858111156125db576125da6125a0565b5b835b8181101561260457806125f0888261231e565b8452602084019350506020810190506125dd565b5050509392505050565b600082601f830112612623576126226124f4565b5b81356126338482602086016125a5565b91505092915050565b600060208284031215612652576126516122cb565b5b600082013567ffffffffffffffff8111156126705761266f6122d0565b5b61267c8482850161260e565b91505092915050565b60006020828403121561269b5761269a6122cb565b5b60006126a98482850161231e565b91505092915050565b60006080820190506126c760008301876123df565b6126d460208301866123df565b6126e160408301856123df565b6126ee60608301846123b5565b95945050505050565b612700816122f5565b82525050565b600060208201905061271b60008301846126f7565b92915050565b60008060408385031215612738576127376122cb565b5b60006127468582860161231e565b92505060206127578582860161231e565b9150509250929050565b7f4e487b7100000000000000000000000000000000000000000000000000000000600052602260045260246000fd5b600060028204905060018216806127a857607f821691505b6020821081036127bb576127ba612761565b5b50919050565b7f4f6e6c792061646d696e00000000000000000000000000000000000000000000600082015250565b60006127f7600a8361221a565b9150612802826127c1565b602082019050919050565b60006020820190508181036000830152612826816127ea565b9050919050565b7f4f6e6c79206d756e69636970616c697479000000000000000000000000000000600082015250565b600061286360118361221a565b915061286e8261282d565b602082019050919050565b6000602082019050818103600083015261289281612856565b9050919050565b7f4e6f742066756e64656400000000000000000000000000000000000000000000600082015250565b60006128cf600a8361221a565b91506128da82612899565b602082019050919050565b600060208201905081810360008301526128fe816128c2565b9050919050565b7f50726f6a65637420616c726561647920636f6d706c6574656400000000000000600082015250565b600061293b60198361221a565b915061294682612905565b602082019050919050565b6000602082019050818103600083015261296a8161292e565b9050919050565b7f4e6f20726576656e756500000000000000000000000000000000000000000000600082015250565b60006129a7600a8361221a565b91506129b282612971565b602082019050919050565b600060208201905081810360008301526129d68161299a565b9050919050565b7f4e487b7100000000000000000000000000000000000000000000000000000000600052601160045260246000fd5b6000612a1782612333565b9150612a2283612333565b9250828201905080821115612a3a57612a396129dd565b5b92915050565b6000604082019050612a5560008301856123df565b612a6260208301846123df565b9392505050565b7f4e487b7100000000000000000000000000000000000000000000000000000000600052603260045260246000fd5b6000612aa382612333565b9150612aae83612333565b9250828202612abc81612333565b91508282048414831517612ad357612ad26129dd565b5b5092915050565b7f4e487b7100000000000000000000000000000000000000000000000000000000600052601260045260246000fd5b6000612b1482612333565b9150612b1f83612333565b925082612b2f57612b2e612ada565b5b828204905092915050565b7f50726f6a65637420697320636f6d706c65746564000000000000000000000000600082015250565b6000612b7060148361221a565b9150612b7b82612b3a565b602082019050919050565b60006020820190508181036000830152612b9f81612b63565b9050919050565b7f50726f6a656374206e6f74206163746976650000000000000000000000000000600082015250565b6000612bdc60128361221a565b9150612be782612ba6565b602082019050919050565b60006020820190508181036000830152612c0b81612bcf565b9050919050565b7f416c72656164792066756e646564000000000000000000000000000000000000600082015250565b6000612c48600e8361221a565b9150612c5382612c12565b602082019050919050565b60006020820190508181036000830152612c7781612c3b565b9050919050565b7f42656c6f77206d696e696d756d00000000000000000000000000000000000000600082015250565b6000612cb4600d8361221a565b9150612cbf82612c7e565b602082019050919050565b60006020820190508181036000830152612ce381612ca7565b9050919050565b7f4578636565647320676f616c0000000000000000000000000000000000000000600082015250565b6000612d20600c8361221a565b9150612d2b82612cea565b602082019050919050565b60006020820190508181036000830152612d4f81612d13565b9050919050565b6000612d6182612333565b91507fffffffffffffffffffffffffffffffffffffffffffffffffffffffffffffffff8203612d9357612d926129dd565b5b600182019050919050565b6000606082019050612db360008301866126f7565b612dc060208301856123df565b612dcd60408301846123df565b949350505050565b7f526563697069656e74206e6f742077686974656c697374656400000000000000600082015250565b6000612e0b60198361221a565b9150612e1682612dd5565b602082019050919050565b60006020820190508181036000830152612e3a81612dfe565b905091905056fea2646970667358221220636930381fc55acfd8af285c147461a085c4ca98545e52071a5041bc9fda2dc464736f6c634300081c0033a26469706673582212202e30c3e1bdc0fffa30e3fde84ca09dff612ef0010f14c5ec3e958298cef28a3c64736f6c634300081c0033",
  "linkReferences": {},
  "deployedLinkReferences": {}
}